{
  "contractName": "PokeCatcher",
  "abi": [
    {
      "inputs": [],
      "stateMutability": "nonpayable",
      "type": "constructor"
    },
    {
      "inputs": [
        {
          "internalType": "string",
          "name": "pokemonName",
          "type": "string"
        }
      ],
      "name": "capture",
      "outputs": [
        {
          "internalType": "string",
          "name": "",
          "type": "string"
        }
      ],
      "stateMutability": "nonpayable",
      "type": "function"
    },
    {
      "inputs": [
        {
          "internalType": "string",
          "name": "pokemonName",
          "type": "string"
        }
      ],
      "name": "isOwned",
      "outputs": [
        {
          "internalType": "bool",
          "name": "",
          "type": "bool"
        }
      ],
      "stateMutability": "view",
      "type": "function",
      "constant": true
    },
    {
      "inputs": [
        {
          "internalType": "string",
          "name": "pokemonName",
          "type": "string"
        }
      ],
      "name": "getOwned",
      "outputs": [
        {
          "internalType": "address",
          "name": "",
          "type": "address"
        }
      ],
      "stateMutability": "view",
      "type": "function",
      "constant": true
    }
  ],
  "bytecode": "0x608060405234801561001057600080fd5b506106a8806100206000396000f3fe608060405234801561001057600080fd5b50600436106100415760003560e01c806302273f671461004657806358f9ab541461017a578063bc055ae51461025f575b600080fd5b6100ff6004803603602081101561005c57600080fd5b810190808035906020019064010000000081111561007957600080fd5b82018360208201111561008b57600080fd5b803590602001918460018302840111640100000000831117156100ad57600080fd5b91908080601f016020809104026020016040519081016040528093929190818152602001838380828437600081840152601f19601f820116905080830192505050505050509192919290505050610330565b6040518080602001828103825283818151815260200191508051906020019080838360005b8381101561013f578082015181840152602081019050610124565b50505050905090810190601f16801561016c5780820380516001836020036101000a031916815260200191505b509250505060405180910390f35b6102336004803603602081101561019057600080fd5b81019080803590602001906401000000008111156101ad57600080fd5b8201836020820111156101bf57600080fd5b803590602001918460018302840111640100000000831117156101e157600080fd5b91908080601f016020809104026020016040519081016040528093929190818152602001838380828437600081840152601f19601f82011690508083019250505050505050919291929050505061053a565b604051808273ffffffffffffffffffffffffffffffffffffffff16815260200191505060405180910390f35b6103186004803603602081101561027557600080fd5b810190808035906020019064010000000081111561029257600080fd5b8201836020820111156102a457600080fd5b803590602001918460018302840111640100000000831117156102c657600080fd5b91908080601f016020809104026020016040519081016040528093929190818152602001838380828437600081840152601f19601f8201169050808301925050505050505091929192905050506105cf565b60405180821515815260200191505060405180910390f35b60606000826040518082805190602001908083835b602083106103685780518252602082019150602081019050602083039250610345565b6001836020036101000a038019825116818451168082178552505050505050905001915050908152602001604051809103902060000160149054906101000a900460ff1615610402576040517f08c379a00000000000000000000000000000000000000000000000000000000081526004018080602001828103825260218152602001806106526021913960400191505060405180910390fd5b336000836040518082805190602001908083835b602083106104395780518252602082019150602081019050602083039250610416565b6001836020036101000a038019825116818451168082178552505050505050905001915050908152602001604051809103902060000160006101000a81548173ffffffffffffffffffffffffffffffffffffffff021916908373ffffffffffffffffffffffffffffffffffffffff16021790555060016000836040518082805190602001908083835b602083106104e557805182526020820191506020810190506020830392506104c2565b6001836020036101000a038019825116818451168082178552505050505050905001915050908152602001604051809103902060000160146101000a81548160ff021916908315150217905550819050919050565b600080826040518082805190602001908083835b60208310610571578051825260208201915060208101905060208303925061054e565b6001836020036101000a038019825116818451168082178552505050505050905001915050908152602001604051809103902060000160009054906101000a900473ffffffffffffffffffffffffffffffffffffffff169050919050565b600080826040518082805190602001908083835b6020831061060657805182526020820191506020810190506020830392506105e3565b6001836020036101000a038019825116818451168082178552505050505050905001915050908152602001604051809103902060000160149054906101000a900460ff16905091905056fe4573746520506f6b656d6f6e207961206861207369646f2063617074757261646fa2646970667358221220bffd6fcac7b68e262589bdeac1b50c198a5d34eacbfdcbf9bdc4d3961b01caf464736f6c634300060c0033",
  "immutableReferences": {},
  "source": "// SPDX-License-Identifier: MIT\npragma solidity 0.6.12;\n\ncontract PokeCatcher {\n  //Variables\n  struct Owner{\n    address owner;\n    bool owned;\n  }\n  mapping(string => Owner) ownership;\n\n  //Constructor\n  constructor() public {}\n\n  //Metodos\n\n  /* function <nombre> (<parametros>) <acceso> <visibilidad> <tipo retorno>*/\n\n  ///Capturar\n  function capture(string memory pokemonName) public returns (string memory){\n    require(!ownership[pokemonName].owned, \"Este Pokemon ya ha sido capturado\");\n    \n    ownership[pokemonName].owner = msg.sender;\n    ownership[pokemonName].owned = true;\n\n  return pokemonName;\n  }\n  ///Verificar si ha sido capturado\n  function isOwned(string memory pokemonName) public view returns(bool){\n    return ownership[pokemonName].owned;\n  }\n\n  ///Obtener al dueño\n  function getOwned(string memory pokemonName) public view returns(address){\n    return ownership[pokemonName].owner;\n  }\n}\n",
  "sourcePath": "C:\\Users\\bradl\\Desktop\\ethereum-pokemon-catcher\\contracts\\Migrations.sol",
  "compiler": {
    "name": "solc",
    "version": "0.6.12+commit.27d51765.Emscripten.clang"
  },
  "schemaVersion": "3.4.7",
  "updatedAt": "2022-06-04T21:08:38.226Z",
  "networkType": "ethereum",
  "devdoc": {
    "kind": "dev",
    "methods": {},
    "version": 1
  },
  "userdoc": {
    "kind": "user",
    "methods": {
      "capture(string)": {
        "notice": "Capturar"
      },
      "getOwned(string)": {
        "notice": "Obtener al dueño"
      },
      "isOwned(string)": {
        "notice": "Verificar si ha sido capturado"
      }
    },
    "version": 1
  }
}